:100000000C94E9020C9411030C9411030C94110349
:100010000C9411030C9411030C9411030C94E41030
:100020000C9411030C9411030C9411030C94110300
:100030000C9411030C9411030C9411030C941103F0
:100040000C9498110C9411030C9466110C944011AB
:100050000C9411030C9411030C9411030C941103D0
:100060000C94E2110C94110300000000003E5B4F61
:100070005B3E3E6B4F6B3E1C3E7C3E1C183C7E3C08
:10008000181C577D571C1C5E7F5E1C00183C180016
:10009000FFE7C3E7FF0018241800FFE7DBE7FF30A6
:1000A000483A060E2629792926407F050507407F14
:1000B00005253F5A3CE73C5A7F3E1C1C08081C1C87
:1000C0003E7F14227F22145F5F005F5F06097F017D
:1000D0007F006689956A606060606094A2FFA29468
:1000E00008047E040810207E201008082A1C080836
:1000F0001C2A08081E101010100C1E0C1E0C303884
:100100003E3830060E3E0E06000000000000005F84
:1001100000000007000700147F147F14242A7F2AA0
:100120001223130864623649562050000807030062
:10013000001C2241000041221C002A1C7F1C2A08AE
:10014000083E080800807030000808080808000011
:1001500060600020100804023E5149453E00427F85
:10016000400072494949462141494D331814127FD4
:100170001027454545393C4A494931412111090774
:100180003649494936464949291E000014000000F5
:1001900040340000000814224114141414140041C7
:1001A00022140802015909063E415D594E7C121184
:1001B000127C7F494949363E414141227F414141BC
:1001C0003E7F494949417F090909013E4141517337
:1001D0007F0808087F00417F41002040413F017FA8
:1001E000081422417F404040407F021C027F7F0470
:1001F00008107F3E4141413E7F090909063E4151B9
:10020000215E7F09192946264949493203017F01A8
:10021000033F4040403F1F2040201F3F4038403FA9
:10022000631408146303047804036159494D4300BF
:100230007F4141410204081020004141417F0402F6
:10024000010204404040404000030708002054548D
:1002500078407F284444383844444428384444286B
:100260007F385454541800087E090218A4A49C78BE
:100270007F0804047800447D40002040403D007F1A
:100280001028440000417F40007C047804787C08FA
:100290000404783844444438FC18242418182424CE
:1002A00018FC7C08040408485454542404043F44B3
:1002B000243C4040207C1C2040201C3C4030403CE2
:1002C00044281028444C9090907C4464544C440042
:1002D00008364100000077000000413608000201A6
:1002E0000204023C2623263C1EA1A161123A404092
:1002F000207A38545455592155557941225454780F
:1003000042215554784020545579400C1E527212A7
:100310003955555559395454545939555454580030
:1003200000457C410002457D420001457C407D1234
:1003300011127DF0282528F07C5455450020545496
:100340007C547C0A097F4932494949323A44444441
:100350003A324A4848303A4141217A3A424020787C
:10036000009DA0A07D3D4242423D3D4040403D3C7D
:1003700024FF2424487E4943662B2FFC2F2BFF09A2
:1003800029F620C0887E0903205454794100004496
:100390007D413048484A32384040227A007A0A0A81
:1003A000727D0D19317D2629292F282629292926F4
:1003B00030484D4020380808080808080808382F39
:1003C00010C8ACBA2F102834FA00007B00000814C3
:1003D0002A142222142A14085500550055AA55AA99
:1003E00055AAFF55FF55FF000000FF00101010FF39
:1003F00000141414FF001010FF00FF1010F010F094
:10040000141414FC001414F700FF0000FF00FF1484
:1004100014F404FC141417101F10101F101F1414D0
:10042000141F00101010F0000000001F101010101A
:100430001F10101010F010000000FF10101010100E
:1004400010101010FF10000000FF140000FF00FF4C
:1004500000001F10170000FC04F4141417101714E8
:1004600014F404F40000FF00F7141414141414140A
:10047000F700F7141414171410101F101F1414147D
:10048000F4141010F010F000001F101F0000001FE7
:1004900014000000FC140000F010F01010FF10FF1A
:1004A000141414FF141010101F00000000F010FFAF
:1004B000FFFFFFFFF0F0F0F0F0FFFFFF0000000093
:1004C00000FFFF0F0F0F0F0F3844443844FC4A4A17
:1004D0004A347E02020606027E027E0263554941CC
:1004E000633844443C04407E201E2006027E020203
:1004F00099A5E7A5991C2A492A1C4C7201724C3017
:100500004A4D4D303048784830BC625A463D3E49ED
:100510004949007E0101017E2A2A2A2A2A44445F91
:10052000444440514A444040444A51400000FF0185
:1005300003E080FF000008086B6B08361236243693
:10054000060F090F060000181800000010100030F8
:1005500040FF0101001F01011E00191D1712003C80
:100560003C3C3C0000000000000103070F1F3F7FE0
:100570000080C0E0F0F8FCFE00000008000201006E
:10058000000304070000000000000000022200FF3A
:10059000210000000000250028002B0000000000C2
:1005A000240027002A0004040404040404040202B2
:1005B00002020202030303030303010204081020E2
:1005C0004080010204081020010204081020FD12DE
:1005D000FA1611241FBECFEFD8E0DEBFCDBF11E069
:1005E000A0E0B1E0EEEDF0E302C005900D92A6367A
:1005F000B107D9F723E0A6E6B1E001C01D92AE39FC
:10060000B207E1F712E0C8EED2E004C02197FE0184
:100610000E942B17C73ED107C9F70E9481130C9483
:1006200062180C94000090E0FC01E654FA4F24910B
:100630008A559A4FFC018491882399F090E0880FA5
:10064000991FFC01E456FA4FA591B491FC01EE56B6
:10065000FA4F859194918FB7F894EC91E22BEC933B
:100660008FBF0895AF92BF92CF92DF92EF92FF9229
:100670000F931F93CF93DF936C017B018B01040FCA
:10068000151FEB015E01AE18BF08C017D10759F066
:100690006991D601ED91FC910190F081E02DC601A8
:1006A0000995892B79F7C501DF91CF911F910F91A2
:1006B000FF90EF90DF90CF90BF90AF900895FC0136
:1006C000538D448D252F30E0842F90E0821B930BB7
:1006D000541710F0CF96089501970895FC01918D5D
:1006E000828D981761F0A28DAE0FBF2FB11D5D9660
:1006F0008C91928D9F5F9F73928F90E008958FEF02
:100700009FEF0895FC01918D828D981731F0828DB5
:10071000E80FF11D858D90E008958FEF9FEF08950C
:10072000FC01918D228D892F90E0805C9F4F821B70
:1007300091098F739927089581EB92E00E949003AD
:1007400021E0892B09F420E0822F089580E090E0D9
:10075000892B29F00E949C0381110C9400000895BC
:10076000FC01A48DA80FB92FB11DA35ABF4F2C9126
:10077000848D90E001968F739927848FA689B7891D
:100780002C93A089B1898C91837080648C93938D14
:10079000848D981306C00288F389E02D80818F7DB7
:1007A00080830895EF92FF920F931F93CF93DF936F
:1007B000EC0181E0888F9B8D8C8D98131AC0E8899D
:1007C000F989808185FF15C09FB7F894EE89FF896C
:1007D0006083E889F98980818370806480839FBF0A
:1007E00081E090E0DF91CF911F910F91FF90EF900A
:1007F0000895F62E0B8D10E00F5F1F4F0F7311271A
:10080000E02E8C8D8E110CC00FB607FCFACFE88954
:10081000F989808185FFF5CFCE010E94B003F1CF29
:10082000EB8DEC0FFD2FF11DE35AFF4FF0829FB7C8
:10083000F8940B8FEA89FB8980818062CFCFCF93B8
:10084000DF93EC01888D8823B9F0AA89BB89E889F8
:10085000F9898C9185FD03C0808186FD0DC00FB69E
:1008600007FCF7CF8C9185FFF2CF808185FFEDCF1C
:10087000CE010E94B003E9CFDF91CF91089590E0BF
:10088000FC01E858FA4F2491FC01E654FA4F3491E8
:10089000FC01EA55FA4FE491EE23C9F0222339F026
:1008A000233001F1A8F4213019F1223029F1F0E0D0
:1008B000EE0FFF1FEE56FA4FA591B4918FB7F89443
:1008C000EC91611126C030953E233C938FBF089573
:1008D0002730A9F02830C9F0243049F780918000F2
:1008E0008F7D03C0809180008F7780938000DFCF61
:1008F00084B58F7784BDDBCF84B58F7DFBCF8091AE
:10090000B0008F778093B000D2CF8091B0008F7D00
:10091000F9CF3E2BDACF9091000189130BC0ECE8A0
:10092000F5E0E4919FEF90930001E13049F028F069
:10093000E23061F060E00C943F0410926E00FACF58
:1009400090916F009D7F90936F00F4CF9091700015
:100950009D7F9093700091E09093B0009091B100D2
:10096000987F94609093B1001092B300E3CF8E30E3
:1009700008F08E508770806480937C0080917A00AC
:10098000806480937A0080917A0086FDFCCF80910C
:1009900078009091790008953FB7F8948091F6011E
:1009A0009091F701A091F801B091F90126B5A89BAB
:1009B00005C02F3F19F00196A11DB11D3FBFBA2FF1
:1009C000A92F982F8827BC01CD01620F711D811DB1
:1009D000911D42E0660F771F881F991F4A95D1F736
:1009E00008952FB7F8946091F2017091F30180910E
:1009F000F4019091F5012FBF0895EF92FF920F93AC
:100A00001F93CF93DF93EC01EC80FD806E157F0583
:100A10000CF070C057FF04C0240F351F50E040E0B9
:100A20008E819F81FA01E20FF31F8E179F071CF43E
:100A30009C01241B350B121613060CF05BC0922F81
:100A4000842F8695869586958E9DD0018F9DB00DBD
:100A500011246A0F7B1FAF8DB8A1A60FB71F477077
:100A600049F188E0841B482F682F70E0FB01E059B2
:100A7000FA4FE491281708F063C0621B71092FEF49
:100A800030E002C0359527956A95E2F7E223013000
:100A9000110539F0B0F10230110561F58C91E827AC
:100AA00002C08C91E82BEC93941720F12C813D81AE
:100AB000A20FB31FE92FE41BE83078F002301105D4
:100AC00021F58E2F9C9190959C932C813D81A20FB6
:100AD000B31F88508830B0F7E770EE2359F0F0E08C
:100AE000E859FA4FE49101301105F9F010F10230A4
:100AF000110519F1DF91CF911F910F91FF90EF90A8
:100B00000895E0958C91E823CECF81E00115110581
:100B100009F480E081959E2F8C932C813D81A20F5A
:100B2000B31F98509830C0F7D7CF8C91E82BEC9337
:100B3000E1CFE0958C91E823FACF8C91E827F7CFAD
:100B40000130110509F4ADCFE0F20230110509F4CE
:100B5000A5CFAE0DBF1DAECF0F931F93CF93DF93E5
:100B600077FF04C0260F371F70E060E0DC011496A9
:100B7000CD91DC91FB01E20FF31FCE17DF071CF4D0
:100B80009E01261B370B121613064CF5FA0157FD72
:100B90003796A3E0F595E795AA95E1F7EC9FD0018C
:100BA000ED9FB00DFC9FB00D11246A0F7B1FDC017F
:100BB0005F96ED91FC91E60FF71F4770552781E096
:100BC00090E001C0880F4A95EAF7482F01301105DF
:100BD00059F0A8F02E0F3F1F02301105E1F0DF9110
:100BE000CF911F910F9108952E0F3F1FE217F3072A
:100BF000B1F38191DF011197842B8C93F7CF80950E
:100C00002E0F3F1FE217F30751F39191DF01119768
:100C100098239C93F7CFE217F30709F38191DF0143
:100C2000119784278C93F7CF0F931F93FA01DC0160
:100C300056964C9156974230E9F04330A1F141303D
:100C400061F514964D915C91DA01AE1BBF0BFD016D
:100C5000E21BF30B77FD0BC0DC0116964D915C9106
:100C60006417750724F4AB01BF010E94AC051F9106
:100C70000F91089514964D915C91DA01A61BB70B64
:100C8000BD0161507109DC0116964D915C91DA014C
:100C9000AE1BBF0BFD01E21BF30B77FDE8CFAF01ED
:100CA0000E94FD04E4CF16964D915C91DA01A61BDB
:100CB000B70BBD0161507109CDCF0F931F93FA019E
:100CC000DC0156964C9156974230A9F0433091F191
:100CD000413019F514964D915C91DA01AE1BBF0BB2
:100CE000FD013197F7FD04C0AB01BF010E94FD0477
:100CF0001F910F91089514964D915C91DA01A61BF6
:100D0000B70BBD01DC0116964D915C91DA01AE1B6B
:100D1000BF0BFD013197621B730BF7FDE9CFDC01BF
:100D200016964D915C91E417F50714F7AF010E94F8
:100D3000AC05DECF16964D915C91DA01A61BB70B80
:100D4000BD01621B730BCECFFC0177FD64C08085B3
:100D50009185681779070CF05EC057FD5CC08285ED
:100D60009385481759070CF056C086898230B1F038
:100D7000833029F1813041F484819581841B950B66
:100D8000AB01BC01615071092130310509F108F452
:100D900043C02230310509F463C0089584819581F0
:100DA000DC01A61BB70BBD016150710986819781DB
:100DB000DC01A41BB50BAD0141505109E5CF868183
:100DC0009781861B970BBA01AC0141505109DCCFCA
:100DD000CA0157FD0796A3E095958795AA95E1F777
:100DE000A481B5818A9F90018B9F300D9A9F300D11
:100DF0001124620F731F078CF0A1E02DE60FF71F7F
:100E00004770552721E030E001C0220F4A95EAF7EC
:100E10008081822B80830895CA0157FD079633E0B5
:100E2000959587953A95E1F7A481B5818A9F9001C0
:100E30008B9F300D9A9F300D1124620F731F078C0A
:100E4000F0A1E02DE60FF71F4770552781E090E0F5
:100E500001C0880F4A95EAF7809590818923DACFFF
:100E6000CA0157FD079623E0959587952A95E1F7E6
:100E7000A481B5818A9F90018B9F300D9A9F300D80
:100E80001124620F731F078CF0A1E02DE60FF71FEE
:100E90004770552721E030E001C0220F4A95EAF75C
:100EA00080818227B7CF08958EBD00000DB407FE64
:100EB000FDCF8EB508958CBD9DBD08950895FC01AC
:100EC0006370668B8481958126813781613039F02A
:100ED000633029F09187808733872287089531878F
:100EE00020879387828708952F923F924F925F9237
:100EF0006F927F928F929F92AF92BF92CF92DF922A
:100F0000EF92FF920F931F93CF93DF93CDB7DEB78E
:100F10006A970FB6F894DEBF0FBECDBF9A8F898F48
:100F20007A8369834A01D22E18870F833701BC2C3C
:100F3000DC0159962D913C915A972115310509F004
:100F400015C118968D919C911997681779070CF027
:100F5000D7C11A968D919C91481759070CF0D0C1B2
:100F60004C2C512CB6E0CB9E600D711D11247C875A
:100F70006B87161617060CF0C3C1EA2DF0E0FA874E
:100F8000E98793E0EE0FFF1F9A95E1F7F88BEF8763
:100F9000CF01840F951F181619060CF0B1C1A98D49
:100FA000BA8D58968C91811104C0BFEABD1508F422
:100FB000D394A98DBA8DED91FC9111970284F3859C
:100FC000E02DCD010995B5E0DB9EC0011124E9813A
:100FD000FA81FC83EB83312C212C9C0128593F4F53
:100FE000388F2F8B4A2D50E05E8B4D8BEF89F88D1B
:100FF000E20DF31D44919E828D82D12CC12C69811A
:101000007A81620D731D7A8B698B842F90E09C8BA3
:101010008B8BE98DFA8DA081B18140FF82C0F1E018
:10102000BF126FC0AF126DC01C96ED91FC912F8165
:101030003885A4014C0D5D1D69897A89898D9A8D49
:101040000995EB89FC89F595E7954E2F5FEFC51A59
:10105000D50A6D817E818D899E89680F791F7E8377
:101060006D8398E0C916D10481F6AFEF2A1A3A0AC7
:10107000EB81FC81E40DF51DFC83EB83F5E02F167D
:10108000310409F0B3CF2F81388526153705B9F023
:10109000A98DBA8DED91FC91B1E0BB1257C0AB1296
:1010A00055C069817A816B5F7F4F0088F189E02D9F
:1010B000830128E030E0A401898D9A8D0995A98DDE
:1010C000BA8DED91FC9111970688F789E02DCD013D
:1010D0006A960FB6F894DEBF0FBECDBFDF91CF91F9
:1010E0001F910F91FF90EF90DF90CF90BF90AF9046
:1010F0009F908F907F906F905F904F903F902F9038
:1011000009941E96ED91FC91EF80F88409851A856B
:1011100092014D815E816B817C81898D9A8D0995CB
:1011200090CF2F8138852615370509F48ACF31E015
:10113000B31207C0A31205C01C96ED91FC91930158
:1011400078CF1E96ED91FC917301E0CF6B857C8585
:10115000641975090684F785E02D73010F851889D8
:101160009201A401898D9A8D0995A9CFF901349630
:101170009491329745915491D91AB7E0DB9E400D76
:10118000511D1124F901259134913C8B2B8BFA01CF
:1011900025903490FA013296749031963491398BBF
:1011A000329664903196449041E04C1518F04A15FF
:1011B00008F07FC0662D062C000C770B7C836B83B8
:1011C000842D042C000C990B9E838D83A98DBA8DE0
:1011D000ED91FC9111970284F385E02DCD010995E5
:1011E000512CD12CC12CEA2DF0E0FA87E9872B2D68
:1011F00030E03C872B87A401440D511D47FC5A95D4
:10120000588F4F8B69817A81660D711D67FC7A95C5
:101210007E876D877989C71608F051CF2C2D30E075
:101220004D815E81420F531FA985BA854A9FC00137
:101230004B9F900D5A9F900D1124FC01E80DF91D54
:10124000F88BEF87852D612C4F89588D420F531FE6
:101250005E8B4D8B671408F050C044244394480EB5
:10126000877041F4C1010196EB89FC89E20DF31D01
:10127000D4901C01D7FE19C0A98DBA8DED91FC91B7
:10128000662D70E0B1E0BB1219C0AB1217C02D85FE
:101290003E85620F731F0484F585E02D2F8138850C
:1012A0004D895E89898D9A8D0995DD0C6394842D15
:1012B000D1CF1E821D821C821B8288CF4B815C8114
:1012C000640F751FAB85BC856A9FC0016B9F900D35
:1012D0007A9F900D112469817A81680F791F0684A5
:1012E000F785E02DEF80F88409851A859D014F85EB
:1012F0005889898D9A8D0995D8CF570CC3948ACF78
:101300006A960FB6F894DEBF0FBECDBFDF91CF91C6
:101310001F910F91FF90EF90DF90CF90BF90AF9013
:101320009F908F907F906F905F904F903F902F9005
:1013300008958F929F92AF92CF92EF92FF920F9368
:101340001F93CF93DF93EC01262F898D9A8D009701
:1013500009F051C06A30D1F41D861C868D8948E0A1
:10136000849F900111248E859F85820F931F9F87F4
:101370008E8781E090E0DF91CF911F910F91FF90D8
:10138000EF90CF90AF909F908F9008956D3089F33C
:10139000CC88AD888F898823C1F08C859D8536E007
:1013A000C39E800D911D1124488559854817590702
:1013B00064F44E855F851D861C8638E0A39EC001BF
:1013C0001124840F951F9F878E87EA88FB880889E0
:1013D00019894E855F856C857D85CE010E947407D5
:1013E0002C898C859D8546E0249F800D911D1124BC
:1013F0009D878C87BECF6A3069F41D861C86FC01F0
:101400003696E4912D898E859F85E29F800D911DF2
:101410001124ADCF6D3009F4ACCFFC01349634917A
:10142000631708F4A6CF3196E491E61708F4A1CF2C
:10143000FC01329685909490462F431B342F47E051
:10144000349F800C911C1124F40132963491319612
:10145000E4913323A9F1EE2399F1CC88F401359678
:10146000E491AD884F89442301F10E2E000CFF0B4F
:10147000E30FF11DCE9EA001CF9E500D11246C856F
:101480007D85460F571F68857985641775076CF44D
:101490004E855F851D861C86FC013696E491AE9EC6
:1014A000400D511D11245F874E87EA88FB8808890B
:1014B00019894E855F856C857D85CE010E947407F4
:1014C000F4013496E4912C898C859D85E29F800DF2
:1014D000911D11248DCF6F927F928F929F92AF9228
:1014E000BF92CF92DF92EF92FF920F931F93CF9311
:1014F000DF93EC016B015A0139014801E881F98160
:101500000284F385E02D0995E881F9810288F38949
:10151000E02D87019301A501B601CE010995A50132
:10152000480D591D41505109E881F9810288F3891C
:10153000E02D9301B601CE010995E881F98100887B
:10154000F189E02D9401A501B601CE010995C60CE3
:10155000D71CB60161507109E881F9810088F189D1
:10156000E02D9401A501CE010995E881F981068855
:10157000F789E02DCE01DF91CF911F910F91FF9060
:10158000EF90DF90CF90BF90AF909F908F907F9023
:101590006F9009946F927F928F929F92AF92BF92B9
:1015A000CF92DF92EF92FF920F931F93CF93DF932F
:1015B0005C01EB016A01490138018701DC01ED9111
:1015C000FC916217730719F5641675062CF0962DB9
:1015D000872D3A01C92ED82E9601261937092F5F7B
:1015E0003F4F048CF58DE02DA301BE01C501099587
:1015F000DF91CF911F910F91FF90EF90DF90CF90EF
:10160000BF90AF909F908F907F906F9008954615F8
:10161000570591F42617370724F0892D4B01C22F67
:10162000D82F9E01281939092F5F3F4F068CF78D5F
:10163000E02DA601B401DACF0284F385E02D0995EF
:10164000D501ED91FC910488F589E02D8301940189
:10165000A601BE01C5010995D501ED91FC91068851
:10166000F789E02DC501DF91CF911F910F91FF9078
:10167000EF90DF90CF90BF90AF909F908F907F9032
:101680006F900994EF92FF920F931F93DC011A96CB
:101690000D911C911B9718962D913C911997ED91E6
:1016A000FC9100A0F1A1E02D7B0150E040E070E052
:1016B00060E009951F910F91FF90EF9008954F9270
:1016C0005F926F927F928F929F92AF92BF92CF92D2
:1016D000DF92EF92FF920F931F93CF93DF936C01F2
:1016E0002B015A0139014801DC01ED91FC91028482
:1016F000F385E02D0995E201640C751CD601ED918E
:10170000FC91C615D7055CF40088F189E02D8701AE
:101710009401A501BE01C60109952196EFCF068867
:10172000F789E02DC601DF91CF911F910F91FF90B6
:10173000EF90DF90CF90BF90AF909F908F907F9071
:101740006F905F904F9009948F929F92AF92BF924B
:10175000CF92DF92EF92FF920F931F93CF93DF937D
:10176000EC015B014A016901E881F9810284F3859A
:10177000E02D099595012C0D3D1D21503109E88181
:10178000F9810488F589E02D78018401A401B5016F
:10179000CE010995E881F9810688F789E02DCE010F
:1017A000DF91CF911F910F91FF90EF90DF90CF903D
:1017B000BF90AF909F908F9009948F929F92AF921D
:1017C000BF92CF92DF92EF92FF920F931F93CF932E
:1017D000DF93EC015B014A0169017801E881F9813D
:1017E0000284F385E02D0995C80CD91C86010150AF
:1017F0001109E881F9810488F589E02D9501A4019A
:10180000B501CE010995E881F9810688F789E02DB7
:10181000CE01DF91CF911F910F91FF90EF90DF905C
:10182000CF90BF90AF909F908F9009940895EF92C2
:10183000FF920F931F93DC01ED91FC9100A0F1A1A9
:10184000E02D09951F910F91FF90EF9008950F9350
:101850001F93DC01ED91FC91068CF78DE02D09952D
:101860001F910F9108950F931F93DC01ED91FC914F
:10187000048CF58DE02D09951F910F910895DC01E1
:10188000ED91FC910084F185E02D09942F923F9217
:101890004F925F926F927F928F929F92AF92BF9280
:1018A000CF92DF92EF92FF920F931F93CF93DF932C
:1018B00000D000D000D0CDB7DEB73C016A013E8336
:1018C0002D83FC82EB825801A41AB50AB7FE03C02F
:1018D000B194A194B1088D809E80861A970A97FED4
:1018E00003C09194819491088A149B045CF0902F1A
:1018F000812F0D811E819D838E839C2D8D2D6B01EB
:10190000692F782F0C151D055CF09D818E817E83DB
:101910006D83692F782F902F812F8601C92ED82EA5
:101920001601201A310A2B012D813E81421A530AD9
:1019300057FE03C0519441945108710137FE03C012
:101940003FEFE31AF30AF594E7948D819E818617A1
:1019500097075CF5A1E0B0E0BA83A983C016D10671
:101960004CF1D301ED91FC910484F585E02D2B81A0
:101970003C81A8016D817E818A149B041CF04D81FD
:101980005E81B801C3010995E418F508F7FE0AC0A5
:101990002D813E8189819A81280F391F3E832D83B5
:1019A000E20CF31C0F5F1F4FD9CF2FEF3FEF3A83AD
:1019B0002983D4CF26960FB6F894DEBF0FBECDBFD5
:1019C000DF91CF911F910F91FF90EF90DF90CF901B
:1019D000BF90AF909F908F907F906F905F904F904F
:1019E0003F902F900895089585ED8093BC008091DD
:1019F000BC0084FDFCCF1092CB0108952091A7017B
:101A0000260F3327331F21323105ECF42091CB010F
:101A1000FC0190E080E0243069F082E00895A0911C
:101A2000A7012191AC0149575E4FA40FB52FB11DFD
:101A30002C930196861798F38091A701680F609305
:101A4000A70180E0089581E008958FEF9FEF08954A
:101A50008FEF9FEF08958091860190E09195819599
:101A600091090895CF92DF92EF92FF920F931F9307
:101A7000CF93DF937C01CB018A012091B002222316
:101A800089F0EB016B01C40ED51ECC15DD0569F0A4
:101A90006991D701ED91FC910190F081E02DC70192
:101AA0000995F3CF642F0E94FE0CC801DF91CF91FE
:101AB0001F910F91FF90EF90DF90CF900895CF93FB
:101AC000DF931F92CDB7DEB769832091B002222346
:101AD000F9F02091AD02203258F021E030E0FC0115
:101AE0003383228390E080E00F90DF91CF910895BF
:101AF0008091AE02E82FF0E0EA59FE4F9981908381
:101B00008F5F8093AE028093AD0281E090E0ECCFD6
:101B100061E0CE0101960E94FE0CF7CF2091AD024C
:101B200081E0213208F044C08091CB018111FCCFCB
:101B30008091AF0292E09093CB0191E09093CD0120
:101B40009FEF9093CA011092EF012093EE01A6E659
:101B5000B1E0EEECF1E090E0291331C01092F00119
:101B60009091F001880F892B8093F0018091CC0136
:101B7000813049F51092CC018091F0018093BB0037
:101B80008091BC0083FDF8CF85EC8093BC008091F0
:101B9000CB018230E1F38091CA018F3FB1F0809197
:101BA000CA018032A1F08091CA01803391F084E0B3
:101BB0001092AE021092AD021092B00208953D91C3
:101BC00031939F5FC9CF85EEE0CF80E0F1CF82E017
:101BD000EFCF83E0EDCF1F93CF93DF93EC018D8D9B
:101BE0009E8D009721F1162F29A131E03093B0028C
:101BF0002093AF021092AE021092AD02DC01ED9183
:101C0000FC910190F081E02D60E009958D8D9E8D15
:101C1000DC01ED91FC910190F081E02D612F09959F
:101C20008D8D9E8DDF91CF911F910C948E0DADA562
:101C3000BEA59C918BA9809589238C938B8D9C8DBF
:101C4000892B31F0862FDF91CF911F910C9454078F
:101C500028E030E080E8A9A5BAA599A9462F482335
:101C6000C1F04C91942B9C93ABA5BCA59C914AA927
:101C7000942B9C93ABA5BCA54C919AA990959423C9
:101C80009C9386952150310931F7DF91CF911F91B7
:101C900008954C9190959423E6CFEF92FF920F9385
:101CA0001F93CF93DF938091770390917803892BD3
:101CB00009F46BC020918F03309190034091910300
:101CC0005091920360E074E284EF90E00E94091763
:101CD0002051310941095109569547953795279566
:101CE0002093B8008091770390917803009709F4CE
:101CF000DBC020917B0331E03093B0022093AF0230
:101D00001092AE021092AD02DC01ED91FC910190B7
:101D1000F081E02D60E009950DE815E0D6E0C1E026
:101D2000FF24F3948091770390917803D15009F4C4
:101D300043C0C032C8F00E948E0D8091770390910D
:101D4000780320917B03F092B0022093AF021092AF
:101D5000AE021092AD02DC01ED91FC910190F08198
:101D6000E02D60E00995C1E08091770390917803C0
:101D7000F8016491DC01ED91FC910190F081E02D7E
:101D80000995CF5F0F5F1F4FCDCF80917503909165
:101D90007603892B31F080919803909199030E94EA
:101DA0005B07E0918903F0918A03908180918E0313
:101DB00080958923808396CF0E948E0D60915E036B
:101DC00061508AE593E00E94EB0D20916003309111
:101DD0006103C901079697FD079623E095958795BE
:101DE0002A95E1F720915E0330915F03829F800185
:101DF000839F100D929F100D1124C0917903D091F3
:101E00007A0380917703909178030C0F1D1F009740
:101E100009F4B9C020917B0331E03093B0022093E4
:101E2000AF021092AE021092AD02DC01ED91FC9176
:101E30000190F081E02D60E40995FF24F394EE24F5
:101E4000E39480917703909178030C171D0709F4B0
:101E500072C0BFE1BF15D0F40E948E0D8091770350
:101E60009091780320917B03E092B0022093AF021F
:101E70001092AE021092AD02DC01ED91FC91019046
:101E8000F081E02D60E40995FF24F39480917703BD
:101E9000909178036991DC01ED91FC910190F081C2
:101EA000E02D0995F394CDCFE0918703F09188035D
:101EB000908180918D03809589238083CDE8D5E042
:101EC00016E0115009F47ACFFE0184912091750338
:101ED00030917603232B21F00E9454072196F1CFF5
:101EE00028E030E040E8E0918303F0918403909192
:101EF0008B03582F5423D9F05081952B9083E09178
:101F00008503F0918603908150918C03952B9083EB
:101F1000E0918503F0918603508190918C03909518
:101F200095239083469521503109E9F6D7CF50810A
:101F300090959523E3CF0E948E0D80917703909129
:101F40007803892B09F460C02091930330919403A6
:101F5000409195035091960360E074E284EF90E025
:101F60000E94091720513109410951095695479599
:101F7000379527952093B800DF91CF911F910F914E
:101F8000FF90EF900895E0918703F091880380819E
:101F900090918D03892B80830C171D0771F2899115
:101FA0002091750330917603232B19F00E9454077A
:101FB000F3CF28E030E040E8E0918303F091840320
:101FC00090918B03582F5423D9F05081952B9083F7
:101FD000E0918503F0918603908150918C03952BBD
:101FE0009083E0918503F0918603508190918C035A
:101FF000909595239083469521503109E9F6CCCFF1
:10200000508190959523E3CFE0918903F0918A0365
:10201000808190918E03892B8083AECF1F93CF93C5
:10202000DF93EC01162F8D8D9E8D892BB1F12DA99B
:102030003EA94FA958AD60E074E284EF90E00E94A1
:10204000091720513109410951095695479537958E
:1020500027952093B80066EA111167EACE010E9425
:10206000EB0D8D8D9E8D892B41F129AD3AAD4BAD98
:102070005CAD60E074E284EF90E00E9409172051AB
:102080003109410951095695479537952795209370
:10209000B800DF91CF911F9108958B8D9C8D892B76
:1020A00021F08EAD9FAD0E945B07EFA5F8A990814E
:1020B0008CA9809589238083CECFEFA5F8A9808154
:1020C0009CA9892B8083E5CF90E080E00895209142
:1020D000600330916103C901079697FD079623E0DD
:1020E000959587952A95E1F720915E0330915F03DE
:1020F000829FA001839F500D929F500D112470E08C
:1021000060E08091790390917A030C945B180E94AF
:102110005618FB0101900020E9F73197AF01461BEB
:10212000570BDC01ED91FC910280F381E02D0994C5
:102130008F929F92AF92BF92EF92FF920F931F9355
:10214000CF93DF93CDB7DEB7A1970FB6F894DEBF7C
:102150000FBECDBF7C01FA01CB0119A2223008F4D9
:102160002AE08E010F5D1F4F822E912CB12CA12CE5
:10217000BF01A50194010E940917F901CA016A3043
:102180000CF5605DD8016E938D01232B242B252B3C
:1021900079F790E080E0109721F0BD01C7010E941F
:1021A0008910A1960FB6F894DEBF0FBECDBFDF91A8
:1021B000CF911F910F91FF90EF90BF90AF909F90A4
:1021C0008F900895695CDECF1F920F920FB60F9229
:1021D00011242F933F934F935F936F937F938F932C
:1021E0009F93AF93BF93EF93FF938091FF019091E3
:1021F0000002A0910102B0910202892B8A2B8B2B45
:10220000D1F19091FA01E091FB01F091FC01808104
:10221000892780838091FF0190910002A0910102A3
:10222000B0910202181619061A061B069CF480913A
:10223000FF0190910002A0910102B091020201976A
:10224000A109B1098093FF0190930002A0930102BC
:10225000B0930202FF91EF91BF91AF919F918F9147
:102260007F916F915F914F913F912F910F900FBE92
:102270000F901F901895809100010E948B04EACF67
:102280001F920F920FB60F9211242F933F934F93EB
:102290005F936F937F938F939F93AF93BF93EF93CE
:1022A000FF9381EB92E00E94B003FF91EF91BF9109
:1022B000AF919F918F917F916F915F914F913F91DE
:1022C0002F910F900FBE0F901F9018951F920F9295
:1022D0000FB60F9211242F938F939F93EF93FF9339
:1022E000E091C102F091C2028081E091C702F091B9
:1022F000C80282FD1BC090818091CA028F5F8F73DC
:102300002091CB02821741F0E091CA02F0E0EF5435
:10231000FD4F958F8093CA02FF91EF919F918F910E
:102320002F910F900FBE0F901F9018958081F4CFC2
:102330001F920F920FB60F9211242F933F938F93FA
:102340009F93AF93BF938091F2019091F301A0917D
:10235000F401B091F5013091F10123E0230F2D3705
:1023600058F50196A11DB11D2093F1018093F20152
:102370009093F301A093F401B093F5018091F601DD
:102380009091F701A091F801B091F9010196A11D7A
:10239000B11D8093F6019093F701A093F801B093DB
:1023A000F901BF91AF919F918F913F912F910F9024
:1023B0000FBE0F901F90189526E8230F0296A11DBF
:1023C000B11DD2CF1F920F920FB60F9211242F93EF
:1023D0003F934F935F936F937F938F939F93AF93AD
:1023E000BF93EF93FF938091B900887F803609F403
:1023F0004AC0F0F5883209F4A5C018F5803109F417
:1024000099C0B8F4882309F4F5C0883009F492C063
:10241000FF91EF91BF91AF919F918F917F916F91BC
:102420005F914F913F912F910F900FBE0F901F9092
:102430001895883109F486C0803251F78093CA011B
:1024400014C0803409F49BC040F48033B9F388335E
:10245000F9F68093CA0185ECAEC0803509F483C0DB
:10246000883509F494C0883499F60E94F40CD0CFD2
:10247000883909F48AC038F5883729F050F488364D
:1024800011F0803729F683E08093CB011092C901C7
:1024900055C0883809F479C0803919F0803809F0BE
:1024A000B7CF8091C901803208F06FC0E091C901B7
:1024B00081E08E0F8093C9018091BB00F0E0E75569
:1024C000FE4F80833BC0803B39F0D0F4803A09F462
:1024D00077C0883A09F09CCF84E08093CB011092BA
:1024E000A8011092A701F0E0E0E009958091A70112
:1024F00081110FC081E08093A7011092870109C06C
:10250000803C09F4A8CF883C09F4A5CF883B09F0AA
:102510007FCFE091A80181E08E0F8093A801F0E0C9
:10252000E957FE4F80818093BB009091A801809174
:10253000A70129C08091F0018093BB0085EC8093B6
:10254000BC0066CF9091EF018091EE01981758F58D
:10255000E091EF0181E08E0F8093EF01F0E0E25314
:10256000FE4F8081E9CFE091EF0181E08E0F8093F3
:10257000EF018091BB00F0E0E253FE4F8083909129
:10258000EF018091EE019817C8F285E8D8CFE0916D
:10259000EF0181E08E0F8093EF018091BB00F0E0AE
:1025A000E253FE4F80838091CD0181115ECF81E0A7
:1025B0008093CC0184EA8093BC001092CB0128CF99
:1025C00085EC8093BC001092CB018091C9018032D0
:1025D00030F4E091C901F0E0E755FE4F10826091C0
:1025E000C90170E089EA91E0F0E0E0E0099510921D
:1025F000C9010ECF1092CA0138CFE1EBF2E013828D
:10260000128248EE53E060E070E0448355836683B5
:1026100077838EE091E09183808385EC90E09587CD
:10262000848784EC90E09787868780EC90E0918B9C
:10263000808B81EC90E0938B828B82EC90E0958B89
:10264000848B86EC90E0978B868B118E128E138E86
:10265000148EAEE4B3E013961C921E921297149659
:102660004D935D936D937C93179780E291E0119663
:102670009C938E93EAE5F3E01382128220E830E027
:102680003583248380E490E0978386833187208795
:1026900093878287168A158614861786168681E0A8
:1026A000858B848B2FEF3FEF338B228B318B208BED
:1026B000878B108E128E118E82E391E0918380833E
:1026C000148E138EB68FA58F10A2178E8FEF84A352
:1026D00085A386A387A384E080A780E89AE1A6E08B
:1026E000B0E085AB96ABA7ABB0AF80EA96E8A1E0CF
:1026F000B0E081AF92AFA3AFB4AF80E586AF17AEC5
:102700000895789484B5826084BD84B5816084BD69
:1027100085B5826085BD85B5816085BD80916E007F
:10272000816080936E0010928100809181008260B0
:1027300080938100809181008160809381008091ED
:1027400080008160809380008091B10084608093DC
:10275000B1008091B00081608093B00080917A00D8
:10276000846080937A0080917A00826080937A00FE
:1027700080917A00816080937A0080917A008068ED
:1027800080937A001092C100E091C102F091C202E0
:10279000C2E0C083E091BD02F091BE021082E091E0
:1027A000BF02F091C0028FEC80831092C902E091C9
:1027B000C502F091C60286E08083E091C302F091E9
:1027C000C402808180618083E091C302F091C402E1
:1027D000808188608083E091C302F091C40280818F
:1027E00080688083E091C302F091C40280818F7D74
:1027F00080830E944D0E0E946710C0936E03C093A9
:102800006F0381E090E090936D0380936C0390934D
:102810006B0380936A0387E00E94130388E00E94A1
:1028200013030E946710EAE2F2E08AEA92E0119252
:102830008E179F07E1F788248A94982C5401E5E0CD
:102840006E2E712C0E9467108091AC028F7780935E
:10285000AC028FE00E94B70427E0289F6001299F07
:10286000D00C1124D092AB02C092AA020D2C000C05
:10287000EE08FF082AE0B701A601F7FE0DC06DE2E1
:1028800081EB92E00E94D20344275527BA014C19EC
:102890005D096E097F092AE081EB92E00E949810A1
:1028A0006AE571E081EB92E00E9489105090AC02E1
:1028B000E52DF0E0E65DFD4F8091AA029091AB021C
:1028C00097FD0F9674E0959587957A95E1F780834B
:1028D00053945092AC02D0E0C0E0E89457F8852DB4
:1028E00090E00091290210E0FC01E65DFD4F6F01D0
:1028F000408150E0EE24E394F12C9E01BE018AE574
:1029000093E00E94CA0AF6018081809329025394C1
:10291000209711F40E9467102196C038D105E9F67E
:1029200010926703109266037092690360926803C5
:102930006DE571E08AE593E00E9489102AE530E0B8
:102940003093670320936603709269036092680373
:10295000209127023091280246E0429FC001439F08
:10296000900D11246C01092E000CEE08FF082AE0DE
:10297000B701A60197FF0DC06DE28AE593E00E94C2
:10298000990944275527BA014C195D096E097F0939
:102990002AE08AE593E00E9498100E944D0EC091B3
:1029A000AA02D091AB02D0932602C0932502CE0199
:1029B0000D2E000CAA0BBB0B40912102509122025C
:1029C0006091230270912402435E5F4F6F4F7F4FEF
:1029D000481759076A077B07CCF48093210290932C
:1029E0002202A0932302B093240221E030E030932E
:1029F000200220931F0220911D0230911E022C17ED
:102A00003D0724F4D0931E02C0931D024091210281
:102A10005091220260912302709124024D5151097C
:102A20006109710984179507A607B707BCF480935D
:102A3000210290932202A0932302B09324021092C9
:102A4000200210921F028091020190910301C81789
:102A5000D90724F4D0930301C09302010E94F1042A
:102A60000091190210911A0220911B0230911C0250
:102A7000601B710B820B930B6031774281059105CE
:102A8000E8F08FE00E94B7049093AB028093AA0213
:102A90008091170290911802909328028093270248
:102AA0000E94F1046093190270931A0280931B0232
:102AB00090931C0210921802109217020E94F104C7
:102AC0000091130210911402209115023091160208
:102AD000601771078207930789F08FE00E94B7049F
:102AE0009093AB028093AA020E94F10460931302B8
:102AF0007093140280931502909316020E94F104C1
:102B000000910F02109110022091110230911202D7
:102B1000601771078207930709F4F1C080910101E2
:102B2000882309F4ECC080911F0290912002892B28
:102B300009F0E5C010920101D0931E02C0931D025E
:102B4000D0930301C093020161E088E00E943F043A
:102B500080910001873029F5ECE8F5E0C491C7FDCC
:102B6000C4C087E00E941303CC2309F48EC0C23096
:102B700009F09FC08091B100887F83608093B1008D
:102B800083E68093B3008092FF0190920002A092AE
:102B90000102B09202028091700082608093700006
:102BA000A4C08F3F09F0A1C0F7E0F0930001ECE86A
:102BB000F5E0C491CF3F09F498C0C13021F148F04D
:102BC000C23009F43FC0C7FD90C087E00E941303E4
:102BD000CECF14BC15BC84B5826084BD85B5816040
:102BE00085BDEDEAF5E08491E82FF0E0EE0FFF1FE0
:102BF000EE56FA4F85919491E1ECF5E08491809343
:102C0000FE01C0E0AECF1092800010928100809152
:102C10008100886080938100809181008160809331
:102C20008100EDEAF5E08491E82FF0E0EE0FFF1F60
:102C3000EE56FA4F85919491E1ECF5E08491809302
:102C4000FD018FCF1092B0001092B1008091B000C2
:102C500082608093B0008091B10081608093B10068
:102C6000EDEAF5E08491E82FF0E0EE0FFF1FEE565D
:102C7000FA4F859194919093FC018093FB01E1ECD4
:102C8000F5E084918093FA016CCF85B5887F8360ED
:102C900085BD81E387BD8092070290920802A092D1
:102CA0000902B0920A0280916E00826080936E00E9
:102CB0001CC0C13009F096C080918100887F81607E
:102CC000809381002FE73CE03093890020938800B7
:102CD0008092030290920402A0920502B092060232
:102CE00080916F00826080936F000E94F104609376
:102CF0000B0270930C0280930D0290930E020E94BF
:102D0000F10400910B0210910C0220910D02309100
:102D10000E02601771078207930799F180910101F4
:102D200081112FC080911F0290912002019749F5D7
:102D30008091170290911802019690931802809347
:102D40001702809125029091260290931E02809393
:102D50001D02909303018093020181E080930101A1
:102D600087E00E948B0460E088E00E943F040E949C
:102D7000F10460930F0270931002809311029093FC
:102D800012020E94CC041B012C0180E5C82ED12C1C
:102D9000E12CF12C0E94CC04621973098409950975
:102DA000683E734081059105A8F331E0C31AD1084C
:102DB000E108F10848EE240E43E0341E411C511C8A
:102DC000C114D104E104F10429F720E030E0232B01
:102DD00009F438CD0E949C03882309F433CD0E9466
:102DE00000002DCDC23021F0C1117FCF8FE752CF2F
:102DF0008FE7C7CE82E391E090935B0380935A0301
:102E00008091790390917A03009711F00C94CD177B
:102E10000895A1E21A2EAA1BBB1BFD010DC0AA1F1B
:102E2000BB1FEE1FFF1FA217B307E407F50720F033
:102E3000A21BB30BE40BF50B661F771F881F991FAE
:102E40001A9469F760957095809590959B01AC01F7
:102E5000BD01CF010895EE0FFF1F0590F491E02D05
:102E600009940F931F93CF93DF938230910510F451
:102E700082E090E0E0919C03F0919D0330E020E03F
:102E8000B0E0A0E0309799F42115310509F44AC06B
:102E9000281B390B24303105D8F58A819B816115B7
:102EA000710589F1FB0193838283FE0111C040818A
:102EB00051810281138148175907E0F048175907DB
:102EC00099F4109761F012960C93129713961C9335
:102ED0003296CF01DF91CF911F910F91089500930A
:102EE0009C0310939D03F4CF2115310551F0421737
:102EF000530738F0A901DB019A01BD01DF01F80198
:102F0000C1CFEF01F9CF90939D0380939C03CDCF68
:102F1000FE01E20FF31F819391932250310939830F
:102F20002883D7CF20919A0330919B03232B41F420
:102F3000209106013091070130939B0320939A035F
:102F400020910401309105012115310541F42DB77F
:102F50003EB74091080150910901241B350BE091C7
:102F60009A03F0919B03E217F307A0F42E1B3F0B8B
:102F70002817390778F0AC014E5F5F4F24173507EB
:102F800048F04E0F5F1F50939B0340939A03819329
:102F900091939FCFF0E0E0E09CCFCF93DF93009739
:102FA000E9F0FC01329713821282A0919C03B09148
:102FB0009D03ED0130E020E01097A1F420813181E4
:102FC000820F931F20919A0330919B032817390792
:102FD00009F061C0F0939B03E0939A03DF91CF91D6
:102FE0000895EA01CE17DF07E8F54A815B819E016B
:102FF00041155105B1F7E901FB83EA8349915991E4
:10300000C40FD51FEC17FD0761F4808191810296F2
:10301000840F951FE90199838883828193819B8323
:103020008A83F0E0E0E012968D919C9113970097CF
:10303000B9F52D913C911197CD010296820F931F06
:1030400020919A0330919B032817390739F630975E
:1030500051F510929D0310929C03B0939B03A09393
:103060009A03BCCFD383C28340815181840F951FC3
:10307000C817D90761F44E5F5F4F88819981480F67
:10308000591F518340838A819B81938382832115B9
:10309000310509F0B0CFF0939D03E0939C039ECFE0
:1030A000FD01DC01C0CF13821282D7CF81E090E016
:1030B000F8940C946218DC0101C06D9341505040AB
:1030C000E0F7089512E0C8EED2E004C0FE010E94CD
:0E30D0002B172196C93ED107C9F7F894FFCF00
:1030DE00FF01FF0300009E03800000000000D203EA
:1030EE0032035F031F0490036E038203000000008F
:1030FE005F0D320D6410160C2B0D280D250D0000E2
:10310E000000990932036410F30CA406160C3F0C50
:10311E00170C330C270C460C160C5F070E101406FA
:10312E005D065F0B420BCA0A6B0A0D0A00462E5251
:06313E004553503D000066
:00000001FF
